:100000000C94A0010C94C8010C94C8010C94C80174
:100010000C94C8010C94C8010C94C8010C94C8013C
:100020000C94C8010C94C8010C94C8010C94610F85
:100030000C94C8010C94C8010C94C8010C94C8011C
:100040000C9454140C94C8010C94C8010C94C8016D
:100050000C94C8010C94C8010C94C8010C94C801FC
:100060000C94C8010C94C8016361726420666F75BA
:100070006E6400436F756C646E2774206F70656EDC
:100080002066696C652E00436F756C646E27742062
:100090006F70656E20736F756E642066696C652E77
:1000A000007365616368696E6720666F72206669B8
:1000B0006C6520636172642E2E2E005344206361B0
:1000C0007264206E6F7420666F756E642E006C6FA4
:1000D0006164696E6720636172642E2E2E000305D1
:1000E0003F213F1208120A100A0E1C0E0C1E0C149F
:1000F0001A14161F161E131E1E1B1E1E1F1E3F2126
:100100003F3A2F3A173D173F213F181F02040A04B8
:100110001F0E04040E1F0A1F0A0E0E1F04110E2EBE
:10012000252E2F2A2E262929021F02081F08150E08
:1001300004040E150E15151B151B040604040C04EF
:100140000000000017000300031F0A1F16371A19CA
:1001500004130A153A000300000E11110E000A04E0
:100160000A040E0400300004040400100018040304
:100170001F111F121F101D151711151F07041F1720
:10018000151D1F151D01011F1F151F17151F000A23
:1001900000003200040A110A0A0A110A04011502B9
:1001A0000E11171E051E1F150A0E110A1F110E1F14
:1001B00015111F05010E111D1F041F111F1108101D
:1001C0000F1F041B1F10101F061F1E040F0E110E01
:1001D0001F09060E112E1F051A121509011F011FF6
:1001E000101F0F180F1F0C1F1B041B031C031915D6
:1001F00013001F11030418111F0002010220202008
:100200000001020C121E1F120C0C12120C121F0CF9
:100210001A14041E05242A1E1F021C141D1020205F
:100220001D1F0814111F101E041E1E021C0C120C90
:100230003E0A040C123E1E040214160A020F120E8D
:10024000101E0E100E1E081E120C1226281E322A18
:1002500026041E21001F00211E040102013F213F30
:100260000A0A153A49676E6F7265006D560A0A50A0
:100270004C45415345205455524E204F4646200090
:100280004C4F5720424154544552592120000500FB
:10029000893008023802497868140000F6E8DBCF9C
:1002A000C3B8AEA49B928A827B746E68625C57521C
:1002B0004E4945413E3A3734312E2C2927252321FA
:1002C0001F1D1C1A1917161514131211100F0E0DDD
:1002D0000C0B0A09080706DF02DB020101FF03011C
:1002E00001F70300000008000201000003040700FA
:1002F00000000000000000010204081020408001FE
:10030000020408102001020408102004040404045C
:1003100004040402020202020203030303030300B3
:10032000000000230026002900000000002500280E
:10033000002B0000000000240027002A0000150404
:1003400011241FBECFEFD8E0DEBFCDBF11E0A0E08B
:10035000B1E0ECEAF3E302C005900D92A835B107D5
:10036000D9F724E0A8E5B1E001C01D92A437B20797
:10037000E1F713E0C0E4D3E004C02297FE010E943D
:10038000B819CE33D107C9F70E94F9170C94D419C4
:100390000C940000EF92FF920F931F93CF93DF9383
:1003A000E12CF12CF82EFF0CFF0C970140E050E0FF
:1003B00000E012E060E572E088E591E00E945C11E7
:1003C000CDEFDFE360E572E080E893E7FE01099599
:1003D00060ED72E080E094E7FE01099560E573E06E
:1003E00080E894E7FE01099560ED73E080E095E711
:1003F000FE01099597013E5F40E050E060E572E044
:1004000088E591E00E945C1160E572E080E895E784
:10041000FE01099560ED72E080E096E7FE01099526
:1004200060E573E080E896E7FE01099560ED73E012
:1004300080E097E7FE01DF91CF911F910F91FF9030
:10044000EF9009940F931F93CF93DF93542F209134
:10045000C701621B2091C601521B252F332727FDA0
:100460003095285F3F4F287F33273595279545E105
:10047000429FE001439FD00D1124C60FD11D67FD9F
:10048000DA95C05BDD4FDE01A455B109FC01452FB3
:1004900017E0410FCAF15033BAF5439508E04770B1
:1004A000403011F16623A2F0643590F410812227C8
:1004B000342F8894111F221F3A95E1F755231AF023
:1004C0003C9131273C9358321AF4388132273883D3
:1004D000222731E0A30FB21FC30FD21FE30FF21F79
:1004E00063950A95F9F610C0662332F0643520F45E
:1004F00010812C9121272C9321E0A20FB41FE20F31
:10050000F41F63950A9581F7DF91CF911F910F91A9
:100510000895AF92BF92CF92DF92EF92FF920F9326
:100520001F93CF93DF9300D0CDB7DEB72091C701E3
:1005300030E0255A3F4F53E0359527955A95E1F71E
:100540008091C60190E0C79663E0959587956A957E
:10055000E1F72D300CF02CE089300CF088E030E031
:10056000D12C082F112707FD1095E22EFF24E7FC60
:10057000F0948D2D90E08017910724F58CE0D89EA3
:100580005001112420E0C12CEC2DF0E0EE15FF0508
:10059000B4F4EA59FE4FEA0DFB1D808148E0849FC8
:1005A000C0011124432F622F8C5E9E4F29833A8312
:1005B0000E942202C3942981285F3A81E5CFD39417
:1005C000385FD7CF0F900F90DF91CF911F910F9190
:1005D000FF90EF90DF90CF90BF90AF90089587FF8E
:1005E00003C01092C70105C08D300CF08CE08093E1
:1005F000C70167FF03C01092C6010895613124F05E
:1006000080E18093C60108956093C60108950F9319
:100610001F9388EC91E00E94600C68E288EC91E006
:100620000E94F40986E192E00E94EF056EEC70E012
:1006300086E192E00E94EB1686E192E00E940006BD
:1006400040E060E572E08CE591E00E94920F882323
:1006500079F086E192E00E94EF056BEB70E086E1B5
:1006600092E00E94BD1686E192E00E940006FFCF54
:1006700086E192E00E94EF0561EA70E086E192E097
:100680000E94EB1686E192E00E94000640E552E0EF
:100690006BE271E08CE591E00E942B11909359017F
:1006A0008093580188E591E00E940F1281110FC0DC
:1006B00086E192E00E94EF0567E870E086E192E053
:1006C0000E94BD1686E192E00E940006FFCF40E541
:1006D00052E065E371E08CE591E00E942B1190936C
:1006E0005B0180935A018AE591E00E940F1281110B
:1006F0000FC086E192E00E94EF0563E770E086E1BB
:1007000092E00E94BD1686E192E00E940006FFCFB3
:1007100080E090E00E94CA0186E192E00E94EF052D
:1007200068E670E086E192E00E94EB1686E192E0D6
:100730000E94000600E610E020E030E0A90166E635
:1007400071E08AE591E00E945C1140E060ED73E7A2
:100750008DEE91E00E942D0D41E060ED73E78DEE8E
:1007600091E01F910F910C942D0D88EC91E00E9467
:100770002D0B882309F458C08091ED0181110EC022
:1007800040E060E873E78DEE91E00E94A40D41E047
:1007900068EA73E78DEE91E00E94A40D0E94890241
:1007A00040E062E082ED91E00E945C05882329F040
:1007B00080910A018F5F80930A0140E060E082ED42
:1007C00091E00E945C05882329F080910A01815004
:1007D00080930A0140E061E082ED91E00E945C05B7
:1007E000882329F080910B01815080930B0140E018
:1007F00063E082ED91E00E945C05882329F08091FE
:100800000B018F5F80930B0140910B0160910A01F6
:100810008CE091E00E94220260910B01685180916E
:100820000A018A520C94EF02089510921902109254
:10083000180282E491E0909317028093160260E020
:1008400070E08AE591E00E94581160E070E088E570
:1008500091E00C945811CF93CFB7F89480914F0248
:10086000811127C0E5E1F3E08491E1E0F3E09491A8
:10087000E82FF0E0EE0FFF1FED5CFC4FA591B49167
:100880008C91892321F461E08AE00E94201661E0C6
:100890008AE00E94E7158CB580618CBD8CB58064C0
:1008A0008CBD61E08DE00E94E71561E08BE00E9465
:1008B000E71580914F028F5F80934F02CFBFCF919A
:1008C000089521E0FC012083089570E085E00C94F8
:1008D0005F15AF92BF92CF92DF92EF92FF920F938C
:1008E0001F93CF93DF93EC0189819A812FE0289F9A
:1008F0008001299F100D112485E10E944215800F6F
:10090000911F24E0969587952A95E1F79A8389832C
:100910002881222391F1AC81AD80B12CC12CD12C46
:10092000E885F9857F0100E010E06E817F819B0101
:1009300040E050E08617970728F0BC01E817F90758
:1009400008F4BF0180E090E01F921F921F92AF93C6
:100950000E94B1176B830F900F900F900F9070E073
:1009600085E0DF91CF911F910F91FF90EF90DF9085
:10097000CF90BF90AF900C945F15DF91CF911F91F6
:100980000F91FF90EF90DF90CF90BF90AF900895C0
:10099000FC018CE39FE09383828384E0818381E088
:1009A00084870895CF93DF93EC018C819D81892BFF
:1009B00081F18C858F7151F584E10E944215BC0153
:1009C000882777FD8095982F0E94371826EE3FE301
:1009D0004EEC50E40E94C3180E9409189B017B83CF
:1009E0006A836115710581F084E08983FE0140E02E
:1009F000848195812817390710F449830AC04F5F15
:100A000032964430A9F702C08FEF89838C858F5FBF
:100A10008C87DF91CF910895FC0188E0808389E085
:100A2000818387E0828386E0838384E0848382E01D
:100A3000858381E186830895DF92EF92FF920F9381
:100A40001F93CF93DF937C01EC0100E010E0DD24E5
:100A5000DA9462E088810E94E71588810E94561628
:100A6000F701E00FF11F892B21F487818F5F8783C6
:100A700008C08781882349F08F3F11F4178201C095
:100A8000D78260E088810E94E7150F5F1F4F219693
:100A900007301105F1F6DF91CF911F910F91FF9073
:100AA000EF90DF900895FC01E60FF11D81E0978142
:100AB000913009F080E00895262F30E0FC01E20F2C
:100AC000F31F8781423028F481508E3F48F080E048
:100AD00008958F3FE1F3642F0E9436199130B9F7E2
:100AE00081E008958EBD00000DB407FEFDCF8EB5E8
:100AF0000895DC01643508F053C0403308F050C05D
:100B000090968C919097342F359535953595E62FA5
:100B1000FF27E7FDF095242F2770823099F4DF013D
:100B2000A05BBD4F84E53802A00DB11D11248C914E
:100B300090E0022E02C0959587950A94E2F7809581
:100B4000817009C0833039F446271C968C91482760
:100B500040FF03C014C0811112C084E53802E00DCB
:100B6000F11D1124E05BFD4F81E090E0022E01C0F9
:100B7000880F0A94EAF780959081982310C084E545
:100B80003802E00DF11D1124E05BFD4F81E090E0A3
:100B9000022E01C0880F0A94EAF79081982B908367
:100BA00008951F93CF93DF93EC01162FF89460E024
:100BB0008F850E942016888918161CF460E00E9418
:100BC0002016812F0E947205888918161CF461E096
:100BD0000E9420167894DF91CF911F91089528EFFD
:100BE00031E0E0E5F2E0DF01A9011D924150504003
:100BF000E1F7DC0119961C9219971A961C92089538
:100C0000DF92EF92FF920F931F93CF93DF93EC014C
:100C10008C858F5F8C8780E5E82E82E0F82ED12CC2
:100C20006D2D6064CE010E94D10560E8CE010E9466
:100C3000D10561E08F850E942016888918161CF462
:100C400060E00E94201600E010E0F701E00FF11FC5
:100C500080810E9472050F5F1F4F04351105A9F7AF
:100C6000888918161CF461E00E942016D39484E54C
:100C7000E80EF11C86E0D812D3CF60E4CE01DF91FC
:100C8000CF911F910F91FF90EF90DF900C94D105C1
:100C9000FC0160A361A30895FC0160A341A3089532
:100CA000CF92DF92FF920F931F93CF93DF931F9208
:100CB000CDB7DEB76C01062FF42E10E0121754F4F6
:100CC000412F4F0D602FC60129830E9479051F5FB8
:100CD0002981F4CF0F90DF91CF911F910F91FF9059
:100CE000DF90CF900895CF92DF92FF920F931F93E2
:100CF000CF93DF931F92CDB7DEB76C01062FF42E92
:100D000010E0121754F4612F600F4F2DC601298394
:100D10000E9479051F5F2981F4CF0F90DF91CF9159
:100D20001F910F91FF90DF90CF900895DF92EF9287
:100D3000FF920F931F93CF93DF93EC01E62ED22EF9
:100D4000F42E112707FD1095040F111D47FD1A956C
:100D50008F2D992787FD90958017910744F42D2DAD
:100D60004F2D6E2DCE010E947306F394F1CFDF91CB
:100D7000CF911F910F91FF90EF90DF9008958F9288
:100D80009F92AF92BF92CF92DF92EF92FF920F931A
:100D90001F93CF93DF93EC01E62ED42E122FCC2499
:100DA000C394C21AB22EB194BB0CF12C802F847064
:100DB000A82E802F8270982E802F8870882E017028
:100DC000F1160CF04DC0C7FC04C01150B394B3949D
:100DD000CB0CF3948F2D880F8F5FC80EAA2071F073
:100DE000412F4D0D6F2D6E0DCE010E9479054F2DB7
:100DF0004D0D612F6E0DCE010E947905992071F085
:100E00004D2D411B6F2D6E0DCE010E9479054D2D8C
:100E10004F19612F6E0DCE010E947905882071F067
:100E20004F2D4D0D6E2D611BCE010E947905412F76
:100E30004D0D6E2D6F19CE010E947905002309F426
:100E4000BFCF4D2D4F196E2D611BCE010E9479052C
:100E50004D2D411B6E2D6F19CE010E947905B0CF2B
:100E6000DF91CF911F910F91FF90EF90DF90CF9086
:100E7000BF90AF909F908F9008958F929F92AF9266
:100E8000BF92CF92DF92EF92FF920F931F93CF9377
:100E9000DF93EC01B62EA42E122FDD24D394D21AA8
:100EA000C22EC194CC0CFF24F394802F8170882E25
:100EB000992493949E0C02708FEF8F0D8117C4F5C7
:100EC000D7FC04C01150C394C394DC0C8F2D880F41
:100ED0008F5FD80E882099F0212F220F290D4A2DDF
:100EE000411B6F2D6B0DCE010E94500623E02E0D8D
:100EF0004A2D4F19612F6B0DCE010E945006002321
:100F000099F0212F220F290D4A2D411B6B2D6F19AE
:100F1000CE010E94500623E02E0D4A2D4F196B2D55
:100F2000611BCE010E945006F394E394E394C4CF76
:100F3000DF91CF911F910F91FF90EF90DF90CF90B5
:100F4000BF90AF909F908F9008959F92AF92BF9265
:100F5000CF92DF92EF92FF920F931F93CF93DF9385
:100F6000EC01B62EF42EA22EDE2CD194DD0C9D2C9D
:100F7000920E1E2D160F292D612F0E947306CC2470
:100F8000CA94C00ECF0C292D4C2D612FCE010E948A
:100F90007306D00EFE0C2D2D4F2D6B2DCE010E9411
:100FA0005006BA0C6FEF6B0D2D2D4F2DCE010E9408
:100FB000500601E02E2D4F2D612FCE010E94BF065D
:100FC000DE2CD094DB0C02E02E2D4F2D6D2DCE01AA
:100FD0000E94BF06CE1804E02E2D4C2D6D2DCE01A3
:100FE0000E94BF0608E02E2D4C2D612FCE010E94DD
:100FF000BF06DF91CF911F910F91FF90EF90DF908F
:10100000CF90BF90AF909F900895AF92BF92CF9234
:10101000DF92EF92FF920F931F93CF93DF93EC0138
:10102000A62EC42EB22EF02E1E2DE194EE0CD12E43
:10103000D60E2E2D2B0D6D2D0E949606FA94FE0CC9
:10104000C10E6FEF6A0D6B0D611BEF2C01E0212FBC
:101050004C2DCE010E943D0702E0212F4C2D6D2D1D
:10106000CE010E943D07DF91CF911F910F91FF901C
:10107000EF90DF90CF90BF90AF900895DC01FB011F
:1010800084918F5F14968C9314973196E491EF5F5F
:101090001596EC9315976E5F7F4F5F967C936E93DA
:1010A0005E970895EF920F93CF93DF93EC014E87F5
:1010B0006D872F87E98A088B81E0888788A319A22A
:1010C0008F836EED70E0CE010E943E080E942B04DB
:1010D0008CB58F7D8CBD8CB58C7F81608CBD8DB5C2
:1010E00081608DBD8CB58C608CBD61E08E850E9469
:1010F000E71561E08D850E94E71561E08F850E940C
:10110000E715898918161CF461E00E94E7158889A3
:1011100018161CF461E00E94E715898918166CF412
:1011200060E00E9420166AE070E080E090E00E949B
:10113000CD1461E089890E9420168D85992787FD4D
:101140009095FC01E55FFC4FE491F0E0EE0FFF1F8E
:10115000E75DFC4F259134913D8B2C8BFC01E950D0
:10116000FD4F84918B8F8E85992787FD9095FC018B
:10117000E55FFC4FE491F0E0EE0FFF1FE75DFC4FF1
:10118000259134913B8B2A8BFC01E950FD4F8491D2
:101190008A8F8889992787FD9095FC01E55FFC4F30
:1011A000E491F0E0EE0FFF1FE75DFC4F25913491D5
:1011B0003F8B2E8BFC01E950FD4F84918C8F8F85E6
:1011C000992787FD9095FC01E55FFC4FE491F0E0E5
:1011D000EE0FFF1FE75DFC4F25913491398F288F6B
:1011E000FC01E950FD4F84918D8F61E2CE010E9498
:1011F000D10564E1CE010E94D1058B8587FF02C035
:101200008FE78B876B856068CE010E94D10560E215
:10121000CE010E94D1056CE0CE010E94D105CE0125
:10122000DF91CF910F91EF900C9400066F927F9217
:101230008F929F92AF92BF92CF92DF92EF92FF92E6
:101240000F931F93CF93DF93EC01162FF42EB02E44
:10125000E8A064350CF081C08FE284170CF47DC0E7
:10126000EC81F0E031970E9FC0010F9F900D11248B
:10127000860F911D67FD9A95181619060CF06DC022
:101280008D81809FC0011124840F911D47FD9A9587
:10129000181619060CF061C0A62E962EC22ED12C5F
:1012A0008A2D811B992787FD90952C8130E082172C
:1012B00093070CF051C0215031098217930779F040
:1012C000C29ED001C39EB00DD29EB00D1124A80FB6
:1012D000B91FEE8DFF8DEA0FFB1F749001C0712CBA
:1012E0008F2C6F2C282D2F19332727FD30958D81BA
:1012F00090E0281739076CF570FE11C081E0B81234
:1013000006C0482D6A2DCE010E9479051EC00B2D06
:101310002B2D462D692DCE010E94960616C089A15F
:1013200098A1891791F088A381E0B81206C0482DD2
:101330006A2DCE010E94790507C00B2D2B2D462D5D
:10134000692DCE010E949606E8A276946B0C8394D8
:10135000C9CF9B0CA394A4CFE8A2DF91CF911F919A
:101360000F91FF90EF90DF90CF90BF90AF909F9044
:101370008F907F906F9008950F93CF93DF93EC0140
:10138000262F6A3039F42D8198858A85299F800D12
:10139000112422C06D3011F108854A8569850E94AB
:1013A000160948855C812985549F200D11242987C1
:1013B0008F81882399F0332727FD309584E590E0CD
:1013C000459F801991091124821793073CF49D8150
:1013D0008A85499F800D11248A87198681E090E0D3
:1013E000DF91CF910F910895CF93DF93FC01462FAA
:1013F000EC01C158DF4F70E088EE93E00E9456196F
:101400006883842F64E10E943619811101C081E054
:1014100081A7DF91CF9108958F929F92AF92BF9253
:10142000CF92DF92EF92FF920F931F93CF93DF93B0
:10143000EC015C0186E8A80EB11CD5018C918823D3
:1014400009F44DC08C3018F41CE0181B01C010E0EA
:10145000FE01EA5AFF4F81E080836E01BEE4CB0EAD
:10146000D11C60E0C6010E9448064E01E3E58E0EE5
:10147000911CD4018C9103E0080F9DE2F92E4F2DB1
:10148000481B410F23E0E22E24E560E0C6010E94E4
:10149000050861E0C6010E944806F401808103E06E
:1014A000080F4F2D481B410F24E560E0C6010E9444
:1014B000A507FE01E95AFF4F84E080833196D401ED
:1014C0008C91181B115D1083CC57DF4F6881798197
:1014D000C6010E94BD16F501808181508083DF9195
:1014E000CF911F910F91FF90EF90DF90CF90BF9021
:1014F000AF909F908F900895DF92EF92FF920F939D
:101500001F93CF93DF93EC018C8D9D8D892B09F474
:101510009CC08E01025B1F4F40E061E0C8010E9449
:101520004C0685E5FE01EE5AFF4F9081891B3596EA
:10153000808331961082698D613009F462C028F091
:10154000888D653008F074C06FC0CE0185960E940A
:10155000070E81E0FE01EA5AFF4F80836EED70E0D6
:10156000C8010E943E081D8E1C8EFE01EC5AFF4FE2
:10157000108238EAD32E7E018AE0E80EF11CCE01FB
:101580000E942D0B8823D9F360E872E0C8010E9405
:10159000BD166A8D7B8D4AE050E0C8010E94AB17F2
:1015A0006BE672E0C8010E94BD166D2D62956F70EA
:1015B00070E04AE050E0C8010E94961760E672E0D1
:1015C000C8010E94BD1664E0C7010E945305811145
:1015D0003CC0DA94A1F660E0CE010E94650483B7B6
:1015E000817F846083BF83B7816083BF83B781605D
:1015F00083BF889583B78E7F83BF83B78E7F83BF7A
:10160000BECFCF58DF4F488159816A817B814F70AF
:10161000552766277727483051056105710510F475
:1016200067E009C068E707C0882379F06B5F03C0F3
:10163000882359F06FE2C801DF91CF911F910F917C
:10164000FF90EF90DF900C94E016DF91CF911F9107
:101650000F91FF90EF90DF9008958F929F92AF923D
:10166000BF92EF92FF920F931F93CF93DF93EC0102
:101670007C0100E8E00EF11CF70180809180A280DF
:10168000B3800E949E1495018401061B170B280B42
:10169000390BB901A8015E011FE7A10EB11CF501CC
:1016A000808190E0A0E0B0E08E0105581F4F8417C4
:1016B0009507A607B70750F4F80180819181A281B0
:1016C000B381892B8A2B8B2B09F040C0F8018081D4
:1016D0009181A281B381892B8A2B8B2BA9F57E0165
:1016E000F5E2EF0EF11CC7010E94040EC7010E9433
:1016F000710EC7010E94350FCE010E940C0ACE0167
:101700000E947C0A7E012EE4E20EF11CC7010E94B9
:101710000006FE01EC5AFF4F8081811103C0C70112
:101720000E94EF050E94AA14F801608371838283EE
:101730009383FE01EB58FF4FC958DF4F2881398151
:10174000621B730B7183608380E036C00E949E141D
:10175000F5012081620F711D811D911DF7016083CC
:10176000718382839383FE01EF58FF4F4081518143
:10177000628173814F5F5F4F6F4F7F4F4083518313
:1017800062837383F80110821182128213820E9495
:10179000AA14FE01E958FF4F60837183828393830B
:1017A000CE010E946904CE010A960E941C05CE015A
:1017B00048960E94D20481E0DF91CF911F910F9152
:1017C000FF90EF90BF90AF909F908F900895E0E8CA
:1017D000F7E72591349181E02130304C09F080E029
:1017E0000895CF93DF93EC010E94E70B9E01275AE7
:1017F0003F4FDE01A059BF4F882309F43CC0E6E902
:10180000F7E78491F9018083E7E9F7E7E491EC8356
:10181000E8E9F7E7E491ED83E9E9F7E78591949149
:101820009F838E83EBE9F7E7859194919987888769
:10183000EDE9F7E7E491EBA7EEE9F7E7E491EAA732
:10184000EFE9F7E7E491EC93E0EAF7E7859194910B
:101850009D8F8C8FE2EAF7E7859194919F8F8E8F11
:10186000E4EAF7E78591949199A388A3E6EAF7E77C
:101870008591949120C08CE3F90180831C822FEF25
:101880002D8380E293E09F838E8384ED93E099879C
:10189000888781E08BA78AA72C938CEA9DE09D8F97
:1018A0008C8F8EED9DE09F8F8E8F84E79EE099A3B5
:1018B00088A38CE39FE09BA38AA3DF91CF91089537
:1018C000CF92DF92EF920F93CF93DF93EC01FC0165
:1018D000E158FF4F82E38083349741E050E060E0BD
:1018E00070E040835183628373833B978FEF8083E3
:1018F000CE010E94F10BCE010E9461046FEFCE0178
:101900000E9465046E018AE0C80ED11CC6010E94C7
:101910000C05C6010E941C05CE0148960E94C80411
:101920003EE0E32E0FE020E14BE06DE0CE01825B74
:101930009F4F0E945208A596CE010E94F80C65E0C8
:10194000C6010E945305882351F060E0CE01DF916B
:10195000CF910F91EF90DF90CF900C94850F40E0E6
:101960006EE872E0CE01DF91CF910F91EF90DF90A2
:10197000CF900C94B90DCF93DF9350E0FA01EE0FA6
:10198000FF1FE80FF91F37852089E32FF22FE60F9D
:10199000F11DE60FF11D25913491FA01EE0FFF1FA5
:1019A000E80FF91F30A3278FF90165917491FC01AD
:1019B000D481D69FC02D1124E40FF51FC1A3F901D6
:1019C000A591B4916B2F70E0EC2FF0E0DC01A40F37
:1019D000B51F6E177F0720F4F90125913491C32FAD
:1019E000CD9FC02D11249296CC93DF91CF91089575
:1019F00021E0FC01248324E020A727ED32E0308B96
:101A0000278740E060E00E94BB0C61E070E083E06B
:101A10000E945F15E1EBF0E08081887F8160808328
:101A2000F89410928000E1E8F0E0108210928500B6
:101A30001092840088E191E090938900809388005F
:101A4000808188608083808181608083EFE6F0E020
:101A500080818260808378940895411103C0FC01E5
:101A60007387628708950F93FC01862F642F0111FD
:101A700029C08230D1F048F4882391F0813011F5EB
:101A800040E0CF010F910C94BB0C8330A9F084305F
:101A9000C9F48481489F602D1124658F268F12C060
:101AA0004B3008F06AE0668B0DC08481489F602D42
:101AB0001124618F228F06C08481489F602D1124DC
:101AC000638F248F0F910895FC0121110EC0648B48
:101AD0008481489F402D1124458B15A214A213A286
:101AE00081E0878B80935404108E08958091540474
:101AF000882319F08091510401C080E08093B400E4
:101B00000895FC0161110DC0178A158A14A213A251
:101B1000108E1092510410925204109254040C949E
:101B2000760D0895CF93DF93EC01611103C00E94FD
:101B3000810D1982DF91CF910895611104C0FC01DC
:101B400010820C94920D08950F931F93CF93DF93FF
:101B5000EC018B01411108C060E00E949D0D1986C7
:101B600018870F8381E08883DF91CF911F910F91B8
:101B700008950F931F93CF93DF93EC018B014111D5
:101B80000EC060E00E94920D1E870D871B8A1A8A84
:101B900081E0898389E08E8B198E1B8E1D8EDF91EB
:101BA000CF911F910F910895CF93DF93EC016111B5
:101BB00028C08881882329F18981811122C08985E3
:101BC0002F819885E22FF92FE80FF11DE80FF11D05
:101BD000859194918F3F2FEF920711F4188211C0D5
:101BE0009C879927880F991FEA85FB85E80FF91FC5
:101BF0006591749140E0CE010E94B90D89858F5F97
:101C00008987DF91CF91089560E00C94D40D60E056
:101C10000C94920D0F93CF93DF93EC0161115DC093
:101C20008981882309F459C08D89811156C02D8579
:101C30003E858A899B89880F991F820F931FFC011B
:101C4000859194910097D1F48989882321F01B8A8A
:101C50001A8AF90111C01982888160E0882331F065
:101C6000CE010E94D40D8A899B8925C0CE01DF91C7
:101C7000CF910F910C94810D85919491BC01769533
:101C800067957695679580FF1DC0AC01A6E05695D7
:101C90004795AA95E1F7292F269526952695205157
:101CA0004F716F7000E0CE010E94330D8A899B89CD
:101CB00001969B8B8A8B880F991FED85FE85E80F17
:101CC000F91FDACF492F6F7320E0CE010E94640D17
:101CD0008A899B8901969B8B8A8BDF91CF910F918B
:101CE000089560E00C940A0ECF93DF93EC0161112C
:101CF000B9C08F89882309F4B5C08D89811105C0C9
:101D0000CE01DF91CF910C94810D81508D8B8DA1EF
:101D1000811138C08BA19CA101969C01220F331F19
:101D2000EF8DF8A1E20FF31F25913491422F4770F8
:101D30004EA3A90163E0569547956A95E1F7BA016C
:101D400076956795232F269526952FA36F732C8163
:101D5000629F602D11246DA34170409350049CA399
:101D60008BA329A130E08217930760F08AA1882312
:101D700029F0281B31093CA32BA304C060E0CE014D
:101D80000E94810D8DA181508DA3288D2F5F288FFA
:101D90004C893FA1340F8C85380F3A836B8D6623B5
:101DA00061F070E0822F992787FD90950E94561967
:101DB0008C8D869F300D11243A838A8190E0CB96DA
:101DC0006BE370E00E9456198A833E893B83698DDC
:101DD000662371F0772767FD7095822F992787FD1D
:101DE00090950E9456198A8D869F300D11243B8351
:101DF0006D8D662391F0822F992787FD909570E075
:101E00000E945619CB0162E070E00E9456192E8D97
:101E10009B81289F900D11249B838B814F3339F038
:101E20008A300CF089E087FD80E08B8301C01B8243
:101E3000F894EA81F0E0E456FD4FE491E093530416
:101E400098A58D81989F802D11249B81899F802D3D
:101E500011249EA1899F802D112480935204809388
:101E600051047894DF91CF91089560E00C94740E42
:101E700060915204662321F1809155048F5F809315
:101E80005504909153048917D8F08091540491E03F
:101E9000892780935404109255048091500488231C
:101EA00069F09091240183E4989F802D1124895B2F
:101EB000809324010E943619909351040C94760D5E
:101EC00008951F920F920FB60F9211242F933F93F4
:101ED0004F935F936F937F938F939F93AF93BF9332
:101EE000EF93FF930E94380FFF91EF91BF91AF9155
:101EF0009F918F917F916F915F914F913F912F9122
:101F00000F900FBE0F901F901895FC01862F9927F8
:101F100087FD9095668170E06F5F7F4F0E94561934
:101F2000858308954F925F926F927F92AF92BF9296
:101F3000CF92DF92EF92FF920F931F93CF93DF9395
:101F40007C01EB01842F0E94CF1200E012E020E020
:101F500030E040E050E0BA01CE010E94FD13811153
:101F6000AAC05E0182E0A81A8EEFB80AF50180814E
:101F7000853509F0A2C06E01F1E0CF1AFEEFDF0A4D
:101F8000F60180818A3A09F098C0F997208131964C
:101F90003081319680813196408037979081492FEA
:101FA0004D7F443019F0963809F089C0512C612CCE
:101FB000712C742C66245524442490E0A0E0B0E0F9
:101FC000DC0199278827480E591E6A1E7B1E832F25
:101FD00090E0982F8827820F911D480E591E611C92
:101FE000711C00E012E020E030E0B301A201CE015C
:101FF0000E94FD13811165C0F5018081853509F0CE
:1020000062C0F60180818A3A09F05DC08F8590E058
:10201000982F88272E85820F911D840D951D9093F2
:102020005804809357042C01612C712CF7014282D3
:102030005382648275822F89822F90E0A0E0B0E005
:102040002227382F492F5A2F8E89280F311D411DE5
:10205000511DA889B0E00E94AB19640D751D861D45
:10206000971D62837383848395834A89C42ED12C00
:10207000E12CF12CFE2CED2CDC2CCC242989C20E79
:10208000D11CE11CF11C54E0F694E794D794C7945A
:102090005A95D1F7C60ED71EE81EF91EC0925904F4
:1020A000D0925A04E0925B04F0925C048D85809398
:1020B000560480E009C080EF07C081EF05C082EFC1
:1020C00003C080EE01C081EEDF91CF911F910F918F
:1020D000FF90EF90DF90CF90BF90AF907F906F9088
:1020E0005F904F900895AF92BF92CF92DF92EF92A0
:1020F000FF920F931F93CF93DF93CDB7DEB72D974A
:102100000FB6F894DEBF0FBECDBF7C015B016A0144
:10211000F70186819781408551858115F2E09F07FF
:1021200068F04F5F5F4FD70119965C934E931897F5
:10213000925017969C938E931697EACF60E070E0CA
:1021400000E012E020E030E0C6010E94FD13D6015D
:102150008C91882309F46DC0F70106811781F6017F
:10216000E00FF11F8385887141F1005E1F4FD70199
:1021700017961C930E93169701151240A9F4F701B8
:10218000408551854F5F5F4F5187408760E070E029
:1021900000E012E020E030E0C6010E94FD13D7010C
:1021A00017961C921E921697D7011696ED91FC91E8
:1021B0001797EC0DFD1D8081CCCF8081853EA9F263
:1021C000DF01FE01319620E0CF013D9141E0420F59
:1021D000303229F0283019F03193242FF6CFFC014A
:1021E000E20FF11D3EE23083F8013896EC0DFD1D43
:1021F00064E0620F5191242F30E0503259F4FC0119
:10220000E20FF31F1082B5010E94CB19892B51F404
:1022100080E010C0461799F3DC01A20FB31F5C9356
:102220004F5FE8CF005E1F4FF7011783068380E101
:1022300001C081E02D960FB6F894DEBF0FBECDBF72
:10224000DF91CF911F910F91FF90EF90DF90CF9092
:10225000BF90AF900895EF92FF920F931F93CF938B
:10226000DF93EC017B018A011F821E828A819B81A0
:1022700099878887A801B701CE010E947310803129
:10228000C9F381110CC0EE81FF81E00FF11F838D36
:1022900090E0982F8827228D820F911D02C080E048
:1022A00090E0DF91CF911F910F91FF90EF900895F3
:1022B000FC017183608308952F923F925F926F9229
:1022C0007F928F929F92AF92BF92CF92DF92EF92C6
:1022D000FF920F931F93CF93DF9300D0CDB7DEB75C
:1022E0001B0149015A016801FC01E080F18055247D
:1022F0005A948114E2E09E06A104B10458F1F2E080
:102300009F1AA108B108539480915604581688F377
:1023100097013327220F331F4F2D552780915704E4
:1023200090915804480F591F60E070E002E010E0FF
:10233000CE0101960E94FD138981EA80F12CFE2CCA
:10234000EE24E80EF11C8FEFE816F80609F453C0EE
:10235000512CCFCF612C82E0782E5394809156047B
:10236000581600F197013327220F331F4F2D5527A1
:102370008091570490915804480F591F60E070E015
:1023800002E010E0CE0101960E94FD138981EA80EF
:10239000F12CFE2CEE24E80EF11CFFEFEF16FF06E9
:1023A00051F1512C94015301A818B908CA14DB0447
:1023B00008F456014091590450915A04450D511D9D
:1023C000E0915604B70162507109E69FC001E79F92
:1023D000900D1124480F591F60E070E08501C10184
:1023E0000E94FD132A0C3B1CCA18DB0821F0812C2B
:1023F000912C5401B2CF0F900F90DF91CF911F918C
:102400000F91FF90EF90DF90CF90BF90AF909F9093
:102410008F907F906F905F903F902F900895FC0178
:1024200081E020813181232B09F480E008958EBD65
:102430000DB407FEFDCF08958FEF0E9417128EB5E1
:1024400008950F931F93CF93DF93EC010E949E1486
:102450008B010E941C128F3F49F00E949E14601B4A
:10246000710B6C177D07A8F380E001C081E0DF915C
:10247000CF911F910F9108951F93CF93DF9300D0B9
:1024800000D0CDB7DEB7182FE0916904F0916A044F
:102490008081909162049095982390838CE291E0E2
:1024A0004C835B836A8379830E942112812F80642D
:1024B0000E9417127981872F0E9417126A81862F36
:1024C0000E9417125B81852F0E9417124C81842F66
:1024D0000E941712112321F0183021F08FEF03C052
:1024E00085E901C087E80E94171210E00E941C12C3
:1024F00087FF04C01F3F11F01F5FF8CF0F900F90B0
:102500000F900F90DF91CF911F910895CF92DF929E
:10251000EF92FF92CF93C82F6A017B0140E050E019
:10252000BA0187E30E943C12B701A6018C2FCF911C
:10253000FF90EF90DF90CF900C943C12CF93DF93FD
:102540000E949E14EB010E941C128F3F49F40E94CE
:102550009E146C1B7D0B69357240A8F38FE003C09D
:102560008E3F71F08DE080935D04E0916904F091FD
:102570006A04808190916204892B808380E001C08D
:1025800081E0DF91CF910895873028F086E1809334
:102590005D0480E0089580658CBD81E008950F930F
:1025A0001F93CF93DF93182F0E949E14EB0180910D
:1025B000290190E0FC01E55FFC4FE491F0E0EE0FB3
:1025C000FF1FE75DFC4F2591349130936A042093FF
:1025D0006904FC01E950FD4F84918093620480916D
:1025E000260190E0FC01E55FFC4FE491F0E0EE0F86
:1025F000FF1FE75DFC4FA591B491B0936804A093D1
:102600006704FC01E950FD4F84918093610480913F
:10261000270190E0FC01E55FFC4FE491F0E0EE0F54
:10262000FF1FE75DFC4F4591549150936604409322
:102630006504FC01E950FD4F849180936004409152
:10264000250150E0FA01E55FFC4FE491F0E0EE0F68
:10265000FF1FE75DFC4F85919491909364048093F4
:102660006304FA01E950FD4F449140935F04F9017E
:10267000508160916204562B5083FC012081242BF1
:1026800020838C9190916104892B8C9361E08091DF
:1026900029010E94E71561E0809127010E94E7155A
:1026A00061E0809125010E94E71560E0809126019C
:1026B0000E94E71561E0809128010E94E71561E022
:1026C000809128010E942016E0916904F0916A042B
:1026D000808190916204892B808383E58CBD8DB5C8
:1026E0008E7F8DBD0AE08FEF0E9417120150D9F73F
:1026F000E0916904F0916A04908180916204809570
:102700008923808340E050E0BA0180E00E943C12BF
:10271000082F813049F00E949E146C1B7D0B613D97
:10272000774080F381E039C04AEA51E060E070E030
:1027300088E00E943C1282FF03C000935E040FC039
:102740000E941C120E941C120E941C120E941C1249
:102750008A3A11F082E021C082E080935E0440E07A
:1027600050E0BA0189E20E948612882349F00E9453
:102770009E146C1B7D0B613D774088F388E00DC093
:1027800080915E04823049F540E050E0BA018AE36E
:102790000E943C12882399F086E080935D04E091CA
:1027A0006904F0916A04808190916204892B80838E
:1027B00080915D04DF91CF911F910F9108950E9448
:1027C0001C12807C803C19F483E080935E040E949C
:1027D0001C120E941C120E941C12E0916904F091CC
:1027E0006A04808190916204892B8083812FDF911C
:1027F000CF911F910F910C94C412AF92BF92CF92C0
:10280000DF92EF92FF920F931F93CF93DF935C01C0
:102810006A017B01E90180915E04833039F079E03F
:10282000CC0CDD1CEE1CFF1C7A95D1F7B701A6017C
:1028300081E10E943C128111F9CF0E949E12811108
:1028400003C010925D041BC080E090E02FEF0C0FDE
:102850001D1FAC1ABD0A2EBD0DB407FEFDCF8C178F
:102860009D0740F08017910728F43EB5F501E80F69
:10287000F91F30830196811532E0930761F7E091EB
:102880006904F0916A04808190916204892B8083AD
:1028900080E0DF91CF911F910F91FF90EF90DF903B
:1028A000CF90BF90AF9008951F920F920FB60F92E6
:1028B00011242F933F938F939F93AF93BF93809156
:1028C0006C0490916D04A0916E04B0916F043091EE
:1028D0006B0423E0230F2D3720F40196A11DB11DB9
:1028E00005C026E8230F0296A11DB11D20936B049D
:1028F00080936C0490936D04A0936E04B0936F0466
:102900008091700490917104A0917204B09173044D
:102910000196A11DB11D8093700490937104A09342
:102920007204B0937304BF91AF919F918F913F91C7
:102930002F910F900FBE0F901F9018952FB7F894FE
:1029400060916C0470916D0480916E0490916F049D
:102950002FBF08953FB7F89480917004909171044F
:10296000A0917204B091730426B5A89B05C02F3FB7
:1029700019F00196A11DB11D3FBF6627782F892F41
:102980009A2F620F711D811D911D42E0660F771F06
:10299000881F991F4A95D1F708958F929F92AF9201
:1029A000BF92CF92DF92EF92FF926B017C010E9467
:1029B000AA144B015C01C114D104E104F104F1F04B
:1029C0000E9408180E94AA14681979098A099B09AB
:1029D000683E73408105910570F321E0C21AD10869
:1029E000E108F10888EE880E83E0981EA11CB11C56
:1029F000C114D104E104F10429F7DDCFFF90EF9079
:102A0000DF90CF90BF90AF909F908F900895789473
:102A100084B5826084BD84B5816084BD85B58260E3
:102A200085BD85B5816085BDEEE6F0E08081816081
:102A30008083E1E8F0E01082808182608083808181
:102A400081608083E0E8F0E0808181608083E1EB59
:102A5000F0E0808184608083E0EBF0E08081816041
:102A60008083EAE7F0E080818460808380818260F7
:102A700080838081816080838081806880831092E0
:102A8000C10008958E3008F08E50877020912A0181
:102A900090E4299F90011124822B80937C008091E7
:102AA0007A00806480937A0080917A0086FDFCCF62
:102AB000809178002091790090E0922B08951F93E7
:102AC000CF93DF93182FEB0161E00E94E715209769
:102AD00011F460E004C0CF3FD10539F461E0812FEB
:102AE000DF91CF911F910C942016E12FF0E0ED5172
:102AF000FD4FE491E330F9F048F4E130B9F0E23011
:102B0000A1F584B5806284BDC8BD34C0E730E9F06A
:102B1000E83019F1E43049F58091800080628093BB
:102B20008000D0938B00C0938A0024C084B5806855
:102B300084BDC7BD1FC080918000806880938000E5
:102B4000D0938900C093880015C08091B000806840
:102B50008093B000C093B3000DC08091B00080623C
:102B60008093B000C093B40005C0C038D1050CF00C
:102B7000B5CFAFCFDF91CF911F910895833081F012
:102B800028F4813099F08230A1F008958730A9F0BF
:102B90008830B9F08430D1F4809180008F7D03C0FB
:102BA000809180008F7780938000089584B58F771F
:102BB00002C084B58F7D84BD08958091B0008F7769
:102BC00003C08091B0008F7D8093B0000895CF93B3
:102BD000DF9390E0FC01E950FD4F2491FC01E55F9B
:102BE000FC4F8491882349F190E0880F991FFC01E4
:102BF000ED5CFC4FA591B491875D9C4FFC01C591A4
:102C0000D4919FB7611108C0F8948C9120958223CC
:102C10008C93888182230AC0623051F4F8948C919D
:102C2000322F309583238C938881822B888304C034
:102C3000F8948C91822B8C939FBFDF91CF91089554
:102C40000F931F93CF93DF931F92CDB7DEB7282F3B
:102C500030E0F901ED51FD4F8491F901E950FD4F4C
:102C60001491F901E55FFC4F04910023C9F088231A
:102C700021F069830E94BE156981E02FF0E0EE0F1C
:102C8000FF1FE75DFC4FA591B4919FB7F8948C911D
:102C9000611103C01095812301C0812B8C939FBFCC
:102CA0000F90DF91CF911F910F910895CF93DF93F4
:102CB000282F30E0F901ED51FD4F8491F901E950E1
:102CC000FD4FD491F901E55FFC4FC491CC2391F005
:102CD00081110E94BE15EC2FF0E0EE0FFF1FE15EA8
:102CE000FC4FA591B4912C912D2381E090E021F42B
:102CF00080E002C080E090E0DF91CF910895CF9214
:102D0000DF92EF92FF920F931F93CF93DF937C019B
:102D10006A01EB0100E010E00C151D0571F06991EE
:102D2000D701ED91FC910190F081E02DC70109954B
:102D3000892B19F00F5F1F4FEFCFC801DF91CF91A3
:102D40001F910F91FF90EF90DF90CF900895611544
:102D5000710581F0DB010D900020E9F7AD014150D4
:102D60005109461B570BDC01ED91FC910280F38168
:102D7000E02D099480E090E00895EF92FF920F9388
:102D80001F93CF93DF938C017B01C0E0D0E0F7016C
:102D9000EC0FFD1F6491662359F0F801A081B18109
:102DA000ED91FC91C8010995892B11F02196EFCF87
:102DB000CE01DF91CF911F910F91FF90EF90089579
:102DC000DC01ED91FC910190F081E02D099466E425
:102DD00071E00C94A7160F931F93CF93DF93EC0130
:102DE0000E94BD168C01CE010E94E716800F911F34
:102DF000DF91CF911F910F9108958F929F92AF9283
:102E0000BF92DF92EF92FF920F931F93CF93DF93C6
:102E1000CDB7DEB7A1970FB6F894DEBF0FBECDBF1A
:102E20007C01F42FD52ECB0119A2223008F42AE020
:102E30008E010F5D1F4F822E912CA12CB12C6F2F74
:102E40007D2DA50194010E946A19F22FD32ECA018B
:102E5000015011096A3014F4E0E301C0E7E3E60F22
:102E6000D801EC93232B242B252B49F7B801C7015C
:102E70000E94A716A1960FB6F894DEBF0FBECDBF75
:102E8000DF91CF911F910F91FF90EF90DF90BF9056
:102E9000AF909F908F900895CF92DF92EF92FF9224
:102EA0000F931F93CF93DF93EC016A017B012115F0
:102EB000310579F4E881F9810190F081E02D642FEA
:102EC000DF91CF911F910F91FF90EF90DF90CF9006
:102ED00009942A303105E9F477FF1AC06DE20E94A7
:102EE000E0168C0144275527BA014C195D096E097B
:102EF0007F092AE0CE010E94FD16800F911FDF910D
:102F0000CF911F910F91FF90EF90DF90CF90089598
:102F10002AE0B701A601CE01DF91CF911F910F9159
:102F2000FF90EF90DF90CF900C94FD169A01AB01CB
:102F3000662757FD6095762F0C944C1721153105A7
:102F400041F4DC01ED91FC910190F081E02D642FC2
:102F500009940C94FD169A01AB0160E070E00C94AA
:102F60009E174F925F926F927F92AF92BF92CF92D5
:102F7000DF92EF92FF920F931F93CF93DF93CDB722
:102F8000DEB729013A01621B730B840B950B29896B
:102F90003A894B895C892A193B094C095D09298BBF
:102FA0003A8B4B8B5C8B9B01AC0169897A898B894D
:102FB0009C890E942619E418F50806091709A8013A
:102FC00097010E948C192A0D3B1D4C1D5D1DCA01E5
:102FD000B901DF91CF911F910F91FF90EF90DF909A
:102FE000CF90BF90AF907F906F905F904F9008957B
:102FF00008950E9407150E94F8170E940703C0E079
:10300000D0E00E94B5032097E1F30E940000F9CFC1
:10301000089598D088F09F5790F0B92F9927B7510D
:10302000A0F0D1F0660F771F881F991F1AF0BA958C
:10303000C9F712C0B13081F09FD0B1E008959CC0B3
:10304000672F782F8827B85F39F0B93FCCF3869582
:1030500077956795B395D9F73EF4909580957095DF
:1030600061957F4F8F4F9F4F0895E89409C097FB5C
:103070003EF490958095709561957F4F8F4F9F4F4F
:103080009923A9F0F92F96E9BB279395F695879593
:1030900077956795B795F111F8CFFAF4BB0F11F456
:1030A00060FF1BC06F5F7F4F8F4F9F4F16C08823FD
:1030B00011F096E911C0772321F09EE8872F762F33
:1030C00005C0662371F096E8862F70E060E02AF074
:1030D0009A95660F771F881FDAF7880F9695879560
:1030E00097F9089597F99F6780E870E060E0089588
:1030F0009FEF80EC089500240A9416161706180610
:103100000906089500240A941216130614060506EB
:103110000895092E0394000C11F4882352F0BB0F7C
:1031200040F4BF2B11F460FF04C06F5F7F4F8F4FDF
:103130009F4F089557FD9058440F551F59F05F3F1A
:1031400071F04795880F97FB991F61F09F3F79F0C9
:1031500087950895121613061406551FF2CF46954B
:10316000F1DF08C0161617061806991FF1CF8695CD
:103170007105610508940895E894BB2766277727B1
:10318000CB0197F908950BD0C4CFB5DF28F0BADF93
:1031900018F0952309F0A6CFABCF1124EECFCADFEC
:1031A000A0F3959FD1F3950F50E0551F629FF0015A
:1031B000729FBB27F00DB11D639FAA27F00DB11DB3
:1031C000AA1F649F6627B00DA11D661F829F22273C
:1031D000B00DA11D621F739FB00DA11D621F839FC3
:1031E000A00D611D221F749F3327A00D611D231F99
:1031F000849F600D211D822F762F6A2F11249F57E7
:1032000050408AF0E1F088234AF0EE0FFF1FBB1F09
:10321000661F771F881F91505040A9F79E3F5105A8
:1032200070F060CFAACF5F3FECF3983EDCF3869559
:1032300077956795B795F795E7959F5FC1F7FE2B53
:10324000880F911D9695879597F90895DB018F93C7
:103250009F930E94AB19BF91AF91A29F800D911DCA
:10326000A39F900DB29F900D11240895991B79E0B2
:1032700004C0991F961708F0961B881F7A95C9F706
:1032800080950895AA1BBB1B51E107C0AA1FBB1F55
:10329000A617B70710F0A61BB70B881F991F5A95E2
:1032A000A9F780959095BC01CD01089597FB072E55
:1032B00016F4009407D077FD09D00E94421907FC4C
:1032C00005D03EF4909581959F4F08957095619536
:1032D0007F4F0895A1E21A2EAA1BBB1BFD010DC052
:1032E000AA1FBB1FEE1FFF1FA217B307E407F507B6
:1032F00020F0A21BB30BE40BF50B661F771F881F92
:10330000991F1A9469F760957095809590959B0127
:10331000AC01BD01CF010895052E97FB1EF400946A
:103320000E94A31957FD07D00E946A1907FC03D019
:103330004EF40C94A31950954095309521953F4F2C
:103340004F4F5F4F089590958095709561957F4F91
:103350008F4F9F4F08950E94BC19A59F900DB49F59
:10336000900DA49F800D911D11240895EE0FFF1F55
:103370000590F491E02D0994A29FB001B39FC00184
:10338000A39F700D811D1124911DB29F700D811D91
:103390001124911D0895FB01DC018D91019080198C
:0C33A0000110D9F3990B0895F894FFCFA9
:1033AC00000074048000010000000808AA55AA550A
:1033BC00AA55AA550000000000000000FFFFFFFF07
:1033CC00FFFFFFFF010D0C0B0A0A01534F554E4432
:1033DC002E44415400444154412E444154000000B9
:1033EC000000BC097F160D0A006E616E00696E66E6
:0833FC00006F7666002E000050
:00000001FF
